{
  "abi": [
    {
      "inputs": [
        {
          "internalType": "uint128",
          "name": "amount",
          "type": "uint128"
        }
      ],
      "name": "mint",
      "outputs": [],
      "stateMutability": "pure",
      "type": "function"
    }
  ],
  "bytecode": {
    "object": "0x608060405234801561001057600080fd5b506101a4806100206000396000f3fe608060405234801561001057600080fd5b506004361061002b5760003560e01c806369d3e20e14610030575b600080fd5b61004361003e3660046100eb565b610045565b005b6000816001600160801b031667ffffffffffffffff8111156100695761006961011b565b604051908082528060200260200182016040528015610092578160200160208202803683370190505b50905060005b826001600160801b03168110156100e657808282815181106100bc576100bc610131565b6001600160801b0390921660209283029190910190910152806100de81610147565b915050610098565b505050565b6000602082840312156100fd57600080fd5b81356001600160801b038116811461011457600080fd5b9392505050565b634e487b7160e01b600052604160045260246000fd5b634e487b7160e01b600052603260045260246000fd5b60006001820161016757634e487b7160e01b600052601160045260246000fd5b506001019056fea2646970667358221220a98a6babef44c406c9c4d919a22e9caccc0608ce963bff6328a8055e2558952564736f6c63430008140033",
    "linkReferences": {}
  },
  "methodIdentifiers": {
    "mint(uint128)": "69d3e20e"
  },
  "id": 19
}